:020000040800F2
:1000000000A00020F12B0008352C0008352C00083A
:10001000352C0008352C0008352C000800000000A5
:10002000000000000000000000000000352C000867
:10003000352C000800000000352C0008352C000885
:10004000352C0008352C0008352C0008352C00080C
:10005000352C0008352C0008352C0008352C0008FC
:10006000352C0008352C0008352C0008352C0008EC
:10007000352C0008352C0008352C0008352C0008DC
:10008000352C0008352C0008352C0008352C0008CC
:10009000352C0008352C0008352C0008352C0008BC
:1000A000352C0008352C0008352C0008352C0008AC
:1000B000352C0008352C0008352C0008352C00089C
:1000C000352C0008352C0008352C0008352C00088C
:1000D000352C0008352C0008352C0008352C00087C
:1000E000352C0008352C0008352C0008352C00086C
:1000F000352C0008352C0008352C0008352C00085C
:10010000000000000000000000000000352C000886
:10011000352C0008352C0008F5110008352C000896
:10012000352C0008352C0008352C0008352C00082B
:10013000352C0008352C00080000000000000000ED
:10014000352C0008352C0008352C00080000000074
:10015000000000000000000000000000000000009F
:100160000000000000000000352C0008352C0008BD
:10017000352C000800000000000000000000000016
:1001800000000000352C000880B48BB000AF786010
:1001900000233B620023FB610023BB6100237B61E2
:1001A00000233B6100237B620023FB600023BB60D4
:1001B000924B5B6803F00C033B623B6A042B07D055
:1001C000082B09D0002B30D17B688D4A1A6030E0B3
:1001D0007B688B4A1A602CE0884B5B6803F47013D1
:1001E000FB61864B5B6803F48033BB61FB699B0C4E
:1001F0000233FB61BB69002B05D1FB69814A02FB1D
:1002000003F37B620DE07D4BDB6A03F00F030133E8
:100210007B617B4A7B69B2FBF3F3FA6902FB03F370
:100220007B627B687A6A1A6003E07B68744A1A60B2
:1002300000BF724B5B6803F0F0033B623B6A1B0933
:100240003B62714A3B6A13441B78DBB2BB607B683C
:100250001A68BB68DA407B685A60684B5B6803F4D5
:10026000E0633B623B6A1B0A3B62674A3B6A13449A
:100270001B78DBB23B617B685A683B69DA407B687C
:100280009A605E4B5B6803F460533B623B6ADB0A37
:100290003B625D4A3B6A13441B78DBB2FB607B68C0
:1002A0005A68FB68DA407B68DA60544BDB6A03F417
:1002B000F8733B623B6A1B093B62544A3B6A32F863
:1002C00013309BB23B613B6903F01003002B06D057
:1002D0007A6A3B69B2FBF3F27B681A6103E07B68E0
:1002E0001A687B681A61454BDB6A03F478533B62FA
:1002F0003B6A5B0A3B62454A3B6A32F813309BB269
:100300003B613B6903F01003002B06D07A6A3B691E
:10031000B2FBF3F27B685A6103E07B681A687B6882
:100320005A61364B1B6B03F01003002B03D17B6823
:10033000334A9A6103E07B681A687B689A612F4BA5
:100340001B6B03F02003002B03D17B682C4ADA617E
:1003500003E07B681A687B68DA61284B1B6B03F447
:100360008073002B0DD07B681A687B6A9A4208D193
:10037000FA68BB689A4204D17B6A5A007B681A62A9
:1003800003E07B68DA687B681A621C4B1B6B03F422
:100390000073002B0DD07B681A687B6A9A4208D1E3
:1003A000FA68BB689A4204D17B6A5A007B685A6239
:1003B00003E07B68DA687B685A62104B1B6B03F0C2
:1003C0000303002B04D17B68DA687B689A6228E01B
:1003D0000A4B1B6B03F00303012B04D17B681A68E3
:1003E0007B689A621DE0054B1B6B03F00303022B35
:1003F0000ED17B684FF400429A6212E00010024076
:1004000000127A0000093D000000002010000020CA
:10041000604B1B6B03F00303032B02D17B685E4A26
:100420009A625C4B1B6B03F44033002B04D17B6856
:100430009A687B68DA6221E0564B1B6B03F4403309
:10044000B3F5803F04D17B681A687B68DA6215E0F7
:10045000504B1B6B03F44033B3F5003F04D17B6872
:100460004FF40042DA6209E04A4B1B6B03F440335D
:10047000B3F5403F02D17B68474ADA62454B1B6BBC
:1004800003F44023002B04D17B689A687B681A63CD
:1004900021E0404B1B6B03F44023B3F5802F04D1C4
:1004A0007B681A687B681A6315E03A4B1B6B03F490
:1004B0004023B3F5002F04D17B684FF400421A6348
:1004C00009E0344B1B6B03F44023B3F5402F02D1FA
:1004D0007B68314A1A632F4B1B6B03F44013002BCC
:1004E00004D17B689A687B685A6321E0294B1B6BB7
:1004F00003F44013B3F5801F04D17B681A687B684E
:100500005A6315E0234B1B6B03F44013B3F5001F34
:1005100004D17B684FF400425A6309E01D4B1B6B0A
:1005200003F44013B3F5401F02D17B681A4A5A63A3
:10053000184B1B6B03F44003002B04D17B689A68B3
:100540007B689A6321E0134B1B6B03F44003B3F504
:10055000800F04D17B681A687B689A6315E00D4BA5
:100560001B6B03F44003B3F5000F04D17B684FF419
:1005700000429A6309E0074B1B6B03F44003B3F599
:10058000400F02D17B68044A9A632C37BD465DF860
:10059000047B70470010024000127A0080B483B0E0
:1005A00000AF78600B46FB70FB78002B06D0094942
:1005B000084B5A697B6813434B6106E00549054BBC
:1005C0005A697B68DB4313404B610C37BD465DF8CD
:1005D000047B70470010024080B483B000AF7860A5
:1005E0000B46FB70FB78002B06D00949084B9A6933
:1005F0007B6813438B6106E00549054B9A697B686C
:10060000DB4313408B610C37BD465DF8047B7047BC
:100610000010024080B483B000AF78600B46FB70DE
:10062000FB78002B06D00949084BDA697B68134335
:10063000CB6106E00549054BDA697B68DB43134073
:10064000CB610C37BD465DF8047B7047001002405B
:1006500080B483B000AF78600B46FB70FB78002B52
:1006600006D00949084BDA687B681343CB6006E083
:100670000549054BDA687B68DB431340CB600C37D8
:10068000BD465DF8047B70470010024080B483B023
:1006900000AF78600B46FB70FB78002B06D0094951
:1006A000084B1A697B6813430B6106E00549054B4B
:1006B0001A697B68DB4313400B610C37BD465DF85C
:1006C000047B70470010024080B500AF00F008F8CE
:1006D00000F0B8F800F020F900F066F980BD00BF26
:1006E00080B58AB000AF4FF480100121FFF756FFAC
:1006F000D0233B62002387F82630002387F8273079
:10070000022387F82430022387F8253007F12003DD
:100710004848194600F0A4FB46480421022200F094
:100720004BFC44480621022200F046FC41480721C8
:10073000022200F041FC01200121FFF76BFF3E4B3C
:100740001B685B093D4AA2FB0323DB099BB2013B0B
:100750009BB2BB820023FB8240F2CF73BB610023BC
:10076000BB830023BB7707F114034FF08040194689
:1007700001F0C4FD4FF08040012101F04FFE7023D5
:100780003B600123BB800223BB816323BB603B46EC
:100790004FF08040194601F0E1FE0023BB603B466C
:1007A0004FF08040194601F059FE3B464FF0804023
:1007B000194601F051FF4FF08040082101F0D6FFAB
:1007C0004FF08040082101F0EDFF4FF080400821FC
:1007D00002F004F805233B62012387F8243000234C
:1007E00087F82630022387F82530002387F8273042
:1007F00007F120030F48194600F032FB4FF4802028
:100800000121FFF7CBFE28233B62012387F8243028
:10081000002387F82630022387F82530002387F845
:10082000273007F120030648194600F019FB283746
:10083000BD4680BD000C004834000020C55A7C0A2B
:100840000004004880B582B000AF4FF48010012151
:10085000FFF7A4FE4FF440533B600023BB7100231D
:10086000FB7102233B7103237B713B4626481946EB
:1008700000F0F6FA24480C21022200F09DFB2248E9
:100880000D21022200F098FB04200121FFF7C2FE97
:100890001E4803210022002302F0D2F81B484FF625
:1008A000FF7101F0A1FD1948012101F0B7FD4FF4DE
:1008B00000200121FFF772FEC0233B603B46144835
:1008C000194600F0CDFA12480621022200F074FB0E
:1008D0000F480721022200F06FFB02200121FFF7E1
:1008E00099FE0C4803210022002302F0A9F80948D0
:1008F0004FF6FF7101F078FD0648012101F08EFDF1
:100900000837BD4680BD00BF000C0048000800400D
:10091000000800480004004080B588B000AF4FF4E4
:1009200000200121FFF73AFE4FF44063BB6103232F
:100930007B7702233B770023BB770023FB7707F10C
:1009400018031748194600F08BFA15480A210722A8
:1009500000F032FB12480B21072200F02DFB4FF470
:1009600080200121FFF756FE0E4802F065F94FF492
:1009700016433B6000237B600023BB600023FB60C9
:1009800000237B610C233B613B460648194602F07D
:10099000AFF90448012102F065FA2037BD4680BD59
:1009A000000800480048004080B588B000AF4FF410
:1009B00080200121FFF7F2FD4FF40073BB6101239A
:1009C0003B770023BB7702237B770023FB7707F17C
:1009D00018034748194600F043FA4FF4001001216C
:1009E000FFF7DCFD4FF480000121FFF7D7FD4FF446
:1009F0000073BB610023BB770023FB7702233B77A7
:100A000003237B7707F118033A48194600F028FAC8
:100A100007F118033848194600F022FA3548092131
:100A2000022200F0C9FA34480921032200F0C4FA76
:100A30004FF400600121FFF7CFFD4FF4803001211A
:100A4000FFF7CAFD2D4B1B682D4AA2FB03239B0C0D
:100A50009BB2013B9BB2BB810023FB814FF0FF3374
:100A60003B610023BB820023BB7507F10C032548C3
:100A7000194601F043FC07F10C032348194601F025
:100A80003DFC00233B8000237B800123BB800023AF
:100A9000FB8000233B813B461A48194601F0BAFE11
:100AA0003B461948194601F0B5FE1748502101F0A0
:100AB0007BFF1548042101F093FF1348802101F0CA
:100AC000A7FF1148012101F0A9FC0E48502101F0B7
:100AD0006BFF0C48042101F083FF0A48802101F0DC
:100AE00097FF0848012101F099FC2037BD4680BDE1
:100AF00000040048001000480014004834000020A2
:100B000083DE1B43002C01400040014080B582B0D1
:100B100000AF78607B68BC2202FB03F3074A82FBCC
:100B200003121A44D211DB17D31A3B334FF0804023
:100B3000194601F0FFFD0837BD4680BDB7600BB612
:100B400080B584B000AFC7E902017A607B68262BCC
:100B50000AD11F482021002200F016FA1C48082163
:100B6000012200F011FA17E07B68282B0AD11848FF
:100B70000821002200F008FA15482021012200F087
:100B800003FA09E012482021002200F0FDF9104884
:100B90000821002200F0F8F9D7E902010AA3D3E9FD
:100BA000002303F0A5FF02460B461046194604F049
:100BB00061FA03464FF08040194601F0C9FD103735
:100BC000BD4680BDAFF3008000000000003C9F40A8
:100BD00000040048AFF3008080B584B000AFC7E9DF
:100BE00002017A607B68262B0AD11F48012100226E
:100BF00000F0CAF91C480421012200F0C5F917E0F1
:100C00007B68282B0AD118480421002200F0BCF987
:100C100015480121012200F0B7F909E0124801212D
:100C2000002200F0B1F910480421002200F0ACF9D4
:100C3000D7E902010AA3D3E9002303F059FF0246D2
:100C40000B461046194604F015FA03464FF0804053
:100C5000194601F061FD1037BD4680BDAFF300803D
:100C600000000000003C9F40000C0048AFF30080F3
:100C700080B582B000AF324801F0C4FB0346FB8070
:100C8000FB884DF2D86293420AD92E4B1B8843F65B
:100C90009722934204D82C4B1B68013B2A4A1360CD
:100CA000284B1B884EF66022934209D9FB8843F6F5
:100CB0009722934204D8244B1B680133224A1360C5
:100CC000204AFB881380204B1B68002B16DA1E4B32
:100CD0001B68DB431A04FB88D31A03F580331846DC
:100CE00003F0A0FE02460B461046194612A3D3E9B4
:100CF000002304F027F802460B4616E0124B1A6850
:100D000013461B049B1A1B041A46FB88D31A184669
:100D100003F088FE02460B461046194606A3D3E9A7
:100D2000002304F00FF802460B4610461946083718
:100D3000BD4680BDAFF3008033333333333343409C
:100D400000080040480000204C000020AFF3008065
:100D500080B582B000AF324801F054FB0346FB80FF
:100D6000FB884DF2D86293420AD92E4B1B8843F67A
:100D70009722934204D82C4B1B68013B2A4A1360EC
:100D8000284B1B884EF66022934209D9FB8843F614
:100D90009722934204D8244B1B680133224A1360E4
:100DA000204AFB881380204B1B68002B16DA1E4B51
:100DB0001B68DB431A04FB88D31A03F580331846FB
:100DC00003F030FE02460B461046194612A3D3E943
:100DD000002303F0B7FF02460B4616E0124B1A68D9
:100DE00013461B049B1A1B041A46FB88D31A184689
:100DF00003F018FE02460B461046194606A3D3E937
:100E0000002303F09FFF02460B46104619460837A1
:100E1000BD4680BDAFF300803333333333334340BB
:100E2000000400404A00002050000020AFF3008082
:100E300080B582B000AF78607B689BB207481946E6
:100E400002F02CF800BF0548802102F049F8034663
:100E5000002BF8D00837BD4680BD00BF00480040D9
:100E600080B487B000AF7860396000237B610023D5
:100E70003B610023FB6000237B617CE07B690122F6
:100E800002FA03F33B613B681A683B691340FB605D
:100E9000FA683B699A426BD13B681B79012B03D0FE
:100EA0003B681B79022B34D17B689A687B695B00B5
:100EB000194603238B40DB431A407B689A607B68AA
:100EC0009A683B685B7919467B695B0001FA03F31A
:100ED0001A437B689A607B689B889AB27B699BB255
:100EE000194601238B409BB2DB439BB213409AB25D
:100EF0007B689A807B689B889AB23B689B7919468D
:100F00007B699BB201FA03F39BB213439AB27B68ED
:100F10009A807B681A687B695B00194603238B40C3
:100F2000DB431A407B681A607B681A683B681B7950
:100F300019467B695B0001FA03F31A437B681A6068
:100F40007B68DA687B699BB25B00032101FA03F3DB
:100F5000DB431A407B68DA607B68DA683B68DB79E0
:100F600019467B695B0001FA03F31A437B68DA6078
:100F70007B6901337B617B690F2B7FF67FAF1C3769
:100F8000BD465DF8047B704780B483B000AF7860E5
:100F90000B467B8013467B707B78002B03D07A88CE
:100FA0007B689A6102E07B687A881A850C37BD46B7
:100FB0005DF8047B704700BF80B485B000AF7860F7
:100FC0000B467B8013467B700023FB600023BB60D5
:100FD0007B787A8802F0070292009340FB607B885E
:100FE000DB089BB218467B88DB089BB21A467B68FD
:100FF000083253F822207B8803F007039B00194630
:101000000F238B40DB4302EA03017B6800F10802F7
:1010100043F822107B88DB089BB21A467B680832B3
:1010200053F82220FB681343BB607B88DB089BB22C
:101030001A467B680832B96843F822101437BD4657
:101040005DF8047B704700BF80B586B000AFFFF746
:101050003BFB10200121FFF7DDFA594B1B68594A71
:10106000A2FB03239B0C9BB2013B9BB23B81002361
:101070007B814CF24F33FB6000233B820023BB7427
:1010800007F108035048194601F038F94E4801218C
:1010900001F0C4F94C480121012201F053FC362330
:1010A0003B7100237B710123BB710123FB713B1D4D
:1010B000184601F0C1F8454B1B881846FFF726FD7E
:1010C000434B1B68012B58D1424B1B68184603F059
:1010D000A9FC02460B46104619464FF000023E4B53
:1010E00003F082FF0346002B27D03A4B1A683B4B94
:1010F0001340002B03DA013B63F0030301337B61F0
:101100007B69002B02D100F087FE08E07B69022B8F
:1011100005D1334B1B68012B01D100F049FD314B48
:101120001B68012B01D100F073F800F071FD294B11
:101130001B680133274A13601CE0264B1B681846C6
:1011400003F070FC02460B46104619464FF00002B1
:10115000214B03F05DFF0346002B0BD04FF0000046
:1011600021490022FFF7ECFC4FF000001E4900224D
:10117000FFF732FD164B00221A60FFF7E9FD024629
:101180000B461A49C1E90023FFF772FD02460B46E0
:101190001749C1E900230F4B1B68184603F042FCB6
:1011A00002460B46104619464FF000020A4B03F068
:1011B0002FFF0346002B01D000F056FE80E700BF52
:1011C0003400002083DE1B4300100040E8000020B4
:1011D000000100202C00002000004440030000809B
:1011E000500100200401002000005940F8000020B8
:1011F000F000002080B500AF034B01221A600348C5
:10120000012101F0BFFB80BD000100200010004063
:10121000B0B500AFBE4BD3E90001BE4BD3E900230C
:1012200003F0B2FA02460B4614461D46BA4B1B6841
:10123000184603F0F7FB02460B462046294603F00A
:1012400057FC02460B46104619464FF000024FF07D
:10125000804303F077FD02460B4610461946A6A3CD
:10126000D3E9002303F044FC02460B46104619461E
:10127000A84BD3E9002303F089FA02460B46A7499D
:10128000C1E90023A64BD3E90001A64BD3E9002313
:1012900003F07AFA02460B4614461D469E4B1B6825
:1012A000184603F0BFFB02460B462046294603F0D2
:1012B0001FFC02460B46104619464FF000024FF045
:1012C000804303F03FFD02460B46104619468AA3B1
:1012D000D3E9002303F00CFC02460B4610461946E6
:1012E000904BD3E9002303F051FA02460B468E4996
:1012F000C1E90023864BD3E90001864BD3E90023E3
:1013000003F042FA02460B46104619464FF000021F
:101310004FF0804303F016FD02460B468349C1E9B6
:1013200000237F4BD3E900017E4BD3E9002303F078
:101330002BFA02460B46104619464FF000024FF0BA
:10134000804303F0FFFC02460B467949C1E90023C4
:10135000774BD3E90001754BD3E9002301F076FE0A
:1013600002460B467349C1E90023724BD3E90001E1
:10137000714BD3E9002303F007FA02460B461046EF
:1013800019464FF000024FF0804303F0DBFC0246A9
:101390000B466A49C1E90023604BD3E90001684B61
:1013A000D3E9002303F0F0F902460B461046194634
:1013B00053A3D3E9002303F09BFB02460B461046E0
:1013C00019464FA3D3E9002303F092FB02460B46D4
:1013D00014461D46554BD3E900015A4BD3E900236F
:1013E00003F0D2F902460B46104619464FF00002B0
:1013F000554B03F07DFB02460B462046294603F081
:10140000C5F902460B465149C1E90023464BD3E9D1
:1014100000014F4BD3E9002303F0B6F902460B4617
:101420001046194636A3D3E9002303F061FB0246B8
:101430000B461046194632A3D3E9002303F058FBAC
:1014400002460B4614461D46394BD3E90001414B79
:10145000D3E9002303F098F902460B4610461946DB
:101460004FF00002384B03F043FB02460B46204688
:10147000294603F08BF902460B463749C1E90023A0
:101480002C4BD3E90001354BD3E9002303F07CF961
:1014900002460B46104619461BA3D3E9002303F06E
:1014A00027FB02460B461046194617A3D3E9002333
:1014B00003F01EFB02460B4614461D461F4BD3E9A4
:1014C0000001274BD3E9002303F05EF902460B46E7
:1014D0002046294603F05AF902460B462149C1E944
:1014E00000231E4BD3E900231046194601F020FDCE
:1014F000164BD3E9002337E09A9999999999A93F16
:101500004853DE5E7EA106404853DE5E7EA1E63F84
:1015100088000020180100202C00002080010020FD
:101520009000002098010020680100207001002038
:10153000A801002048010020B0000020C0000020C9
:1015400078000020C800002000001040200100208A
:1015500080000020D00000205801002098000020CA
:10156000B80000202801002003F0C2FA02460B4612
:1015700014461D468C4BD3E900231046194601F052
:101580001BFD8A4BD3E9002303F0B2FA02460B4657
:101590002046294603F0FAF802460B4614461D463B
:1015A000834BD3E900231046194679A3D3E90023DE
:1015B00003F09EFA02460B46104619464FF0000211
:1015C0004FF0804303F0BEFB02460B4620462946FF
:1015D00003F0DCF802460B46104619466EA3D3E929
:1015E000002303F0AFFB02460B467249C1E900231A
:1015F0006D4BD3E900231046194601F099FC6E4B60
:10160000D3E9002303F074FA02460B4614461D4644
:10161000654BD3E900231046194601F0CDFC634B1E
:10162000D3E9002303F064FA02460B46204629461C
:1016300003F0ACF802460B4614461D465C4BD3E95A
:1016400000231046194652A3D3E9002303F050FAB1
:1016500002460B46104619464FF000024FF08043F9
:1016600003F070FB02460B462046294603F08CF837
:1016700002460B461046194647A3D3E9002303F060
:1016800061FB02460B464D49C1E90023494BD3E9B2
:1016900000231046194642A3D3E9002303F028FA99
:1016A00002460B4610461946454BD3E9002303F08A
:1016B0006DF802460B464249C1E900233F4BD3E98E
:1016C00000231046194636A3D3E9002303F010FA8D
:1016D00002460B46104619463A4BD3E9002303F065
:1016E00055F802460B463749C1E90023344BD3E98C
:1016F0000023104619464FF000024FF0000303F09C
:1017000087FC0346002B11D02D4BD3E90023104654
:1017100019464FF000022C4B03F014FB02460B4617
:10172000104619462622FFF70BFA10E0244BD3E9A6
:101730000023104619464FF00002244B03F002FB31
:1017400002460B46104619462822FFF7F9F91D4BB1
:10175000D3E90023104619464FF000024FF0000372
:1017600003F056FC0346002B32D0164BD3E900237E
:10177000104619464FF00002134B03F0E3FA0246FD
:101780000B46104619462622FFF726FA31E000BF25
:101790001F85EB51B81EC53F5839B4C876BE9F3F70
:1017A0009A9999999999A93F980000205801002089
:1017B0002801002040010020200100200801002015
:1017C000D8000020E000002000003440000034C0B9
:1017D000BF4BD3E90023104619464FF00002BD4B22
:1017E00003F0B0FA02460B46104619462822FFF7CE
:1017F000F3F9B94BD3E90023B849C1E90023B84B49
:10180000D3E90023B749C1E90023FFF7A1FA024653
:101810000B4610461946A4A3D3E9002303F068F948
:1018200002460B46104619464FF00002AE4B03F03D
:1018300089FA02460B46A849C1E90023FFF718FAC6
:1018400002460B461046194697A3D3E9002303F03E
:101850004FF902460B46104619464FF00002A24BC4
:1018600003F070FA02460B469D49C1E900239A4BEA
:10187000D3E90001994BD3E9002302F085FF02462A
:101880000B46104619468AA3D3E9002303F05AFAFF
:1018900002460B469549C1E90023914BD3E900016B
:1018A000904BD3E9002302F06FFF02460B4610462F
:1018B00019467FA3D3E9002303F044FA02460B46FE
:1018C0008B49C1E900238B4BD3E90023104619460D
:1018D00001F02EFB02460B461046194676A3D3E9CB
:1018E000002303F005F902460B4614461D46804BC3
:1018F000D3E900017D4BD3E9002302F047FF024604
:101900000B462046294603F0F3F802460B467A4977
:10191000C1E90023774BD3E900231046194601F0B3
:101920004BFB02460B461046194663A3D3E900233E
:1019300003F0DEF802460B4614461D466C4BD3E915
:1019400000016A4BD3E9002302F020FF02460B4658
:101950002046294603F0CCF802460B466749C1E908
:101960000023634BD3E90001604BD3E9002302F06D
:101970000BFF02460B461046194651A3D3E900233C
:1019800003F0B6F802460B46104619464EA3D3E9BB
:10199000002303F0D7F902460B465949C1E9002359
:1019A000544BD3E900231046194601F0C1FA524BBB
:1019B000D3E9002303F09CF802460B4614461D466B
:1019C0004C4BD3E900231046194601F0F5FA4B4B76
:1019D000D3E9002303F08CF802460B462046294643
:1019E00002F0D4FE02460B464649C1E90023414BB2
:1019F000D3E900234449C1E90023394BD3E900016D
:101A0000354BD3E9002302F0BFFE02460B461046D9
:101A100019462BA3D3E9002303F06AF802460B46CC
:101A20001046194628A3D3E9002303F08BF9024698
:101A30000B46104619464FF000024FF0000302F02B
:101A4000A5FE02460B462B49C1E90023294BD3E9E9
:101A500000012D4BD3E9002302F098FE02460B460D
:101A6000104619464FF000024FF0804303F06AF928
:101A700002460B461046194601F05AFA214BD3E9AB
:101A8000002303F035F802460B461046194608A31A
:101A9000D3E9002303F02CF802460B461046194602
:101AA00034E000BFAFF30080F4D64354FB2109407B
:101AB0009A9999999999A93F5839B4C876BE8F3F98
:101AC0005839B4C876BE9F3F1F85EB51B81EC53F3D
:101AD000E0000020000034C06800002070000020FA
:101AE0005800002060000020008066409001002027
:101AF0008801002098000020C8000020D0000020AD
:101B0000B800002060010020A8000020224BD3E98B
:101B1000002302F03BFE02460B461F49C1E90023A9
:101B20001E4BD3E900011E4BD3E9002302F02EFE29
:101B300002460B46104619464FF000024FF0804314
:101B400003F000F902460B461046194601F034FA3C
:101B5000144BD3E9002302F0CBFF02460B4610469C
:101B600019460BA3D3E9002302F0C2FF02460B463D
:101B7000104619460C4BD3E9002302F007FE02463B
:101B80000B460949C1E90023B0BD00BFAFF3008097
:101B90009A9999999999A93F780000209800002076
:101BA000A80000206001002080000020AFF300802A
:101BB00080B500AF144B1B68012B06D1134B1B885B
:101BC00005339AB2114B1A8009E00F4B1B68002BAA
:101BD00005D10E4B1B88053B9AB20C4B1A800B4B60
:101BE0001B881846FEF792FF084B1B88B42B02D1C6
:101BF000054B00221A60054B1B88002B02D1024BBB
:101C000001221A6080BD00BF30000020E8000020E3
:101C100080B582B000AFF520FFF70AF9704B1B6862
:101C2000FB80FB88DBB21846FFF702F96D4BD3E966
:101C30000023104619464FF000026B4B02F058FF8C
:101C400002460B461046194663A3D3E9002303F06E
:101C500079F802460B46104619464FF00002634BD6
:101C600002F046FF02460B461046194603F002FA00
:101C70000346FB80FB88DBB21846FFF7D9F8FB88E8
:101C80001B0A9BB21846FFF7D3F8594BD3E9002340
:101C9000104619464FF00002564B02F029FF02464B
:101CA0000B461046194603F0E5F90346FB80FB8816
:101CB000DBB21846FFF7BCF8FB881B0A9BB218463C
:101CC000FFF7B6F84C4BD3E90023104619464FF006
:101CD0000002484B02F00CFF02460B461046194624
:101CE00003F0C8F90346FB80FB88DBB21846FFF718
:101CF0009FF8FB881B0A9BB21846FFF799F83F4BE9
:101D0000D3E90023104619464FF00002394B02F088
:101D1000EFFE02460B461046194603F0ABF90346A8
:101D2000FB80FB88DBB21846FFF782F8FB881B0AB2
:101D30009BB21846FFF77CF8314BD3E900231046DD
:101D400019464FF000022B4B02F0D2FE02460B4622
:101D50001046194603F08EF90346FB80FB88DBB280
:101D60001846FFF765F8FB881B0A9BB21846FFF779
:101D70005FF8244800F0AAFD03469AB2224B1A806D
:101D8000224800F0A3FD03469AB2214B1A80214B52
:101D90001B88DBB21846FFF74BF81B4B1B88DBB2E6
:101DA0001846FFF745F8184B1B881B0A9BB21846CC
:101DB000FFF73EF8164B1B88DBB21846FFF738F8E2
:101DC000134B1B881B0A9BB21846FFF731F80837E4
:101DD000BD4680BDAFF30080F4D64354FB210940DB
:101DE0002C00002098000020008066400000494040
:101DF0007800002000408F408001002080000020FB
:101E000068010020002C014010010020004001402A
:101E100078010020E800002080B582B000AF0F48B4
:101E20004FF400710122FFF7AFF80D4800F0EAFA15
:101E300003467B6000BF0A4800F0E4FA02467B6874
:101E400003F6C4139A42F6D304484FF400710022FB
:101E5000FFF79AF80837BD4680BD00BF0004004870
:101E6000001000400000000080B582B000AF8C4838
:101E7000202101F035F80346002B00F00881884846
:101E800001F01EF80346FB71FB79262B29D1854B07
:101E9000D3E90023104619467FA3D3E9002302F0BB
:101EA00075FC02460B467F49C1E900237E4BD3E90E
:101EB00000237E49C1E900237D4BD3E900237D49FE
:101EC000C1E900237C4BD3E900237C49C1E900230D
:101ED0007B4B00221A607B4B01221A607A4B012255
:101EE0001A60FB79282B29D16E4BD3E900231046C9
:101EF000194669A3D3E9002302F046FC02460B46CB
:101F00006849C1E90023684BD3E900236749C1E967
:101F10000023674BD3E900236649C1E90023664BE0
:101F2000D3E900236549C1E90023654B00221A600B
:101F3000644B01221A60644B01221A60FB79252B45
:101F400029D1624BD3E900231046194652A3D3E9A5
:101F5000002302F01BFC02460B465C49C1E900234A
:101F6000514BD3E900235149C1E90023504BD3E938
:101F700000235049C1E900234F4BD3E900234F49C7
:101F8000C1E900234E4B00221A604E4B01221A6019
:101F90004D4B01221A60FB79272B29D14B4BD3E9FA
:101FA0000023104619463CA3D3E9002302F0ECFBC2
:101FB00002460B464549C1E900233B4BD3E90023C8
:101FC0003A49C1E900233A4BD3E900233949C1E931
:101FD0000023394BD3E900233849C1E90023384BAA
:101FE00000221A60374B01221A60374B01221A6017
:101FF000FB79202B08D1324B00221A60314B002292
:102000001A60314B01221A60FB79612B0ED1304BE3
:102010001B88B32B05D82E4B1B8805339AB22C4B4B
:102020001A802B4B1B881846FEF770FDFB79642B3A
:102030000ED1274B1B88002B05D0254B1B88053B59
:102040009AB2234B1A80224B1B881846FEF75EFD7E
:10205000FB79732B08D11A4B00221A60194B00220E
:102060001A60194B00221A60FB79632B0BD14FF0D9
:10207000000018490022FEF763FD4FF000001549EB
:102080000022FEF7A9FD0648202100F043FF083793
:10209000BD4680BDAFF30080333333333333E33F8A
:1020A000004800408800002078000020180100202F
:1020B000800000209801002098000020B00000203F
:1020C0002C0000200401002050010020900000207E
:1020D000E80000200000594080B500AF1A4A1A4BB2
:1020E0001B6843F0010313601749174B5A68174BDD
:1020F00013404B60144A144B1B6823F0847323F481
:1021000080331360104A104B1B6823F48023136044
:102110000D4A0D4B5B6823F4FE0353600A4A0A4BD9
:10212000DB6A23F00F03D3620749074B1A6B084B96
:1021300013400B63044B00229A6000F00DF8054B2E
:102140004FF000629A6080BD001002400CC07FF822
:10215000CCFC00FF00ED00E080B483B000AF0023B2
:102160007B6000233B60324A314B1B6843F4803371
:1021700013602F4B1B6803F400333B607B68013313
:102180007B603B68002B03D17B68B3F5A06FF0D177
:10219000274B1B6803F40033002B02D001233B6064
:1021A00001E000233B603B68012B3CD1214B122214
:1021B0001A601F4A1E4B5B6853601D4A1C4B5B68CC
:1021C00053601B4A1A4B5B6843F480635360184AA0
:1021D000174B5B6823F47C135360154A144B5B6800
:1021E00043F4E8135360124A114B1B6843F08073A9
:1021F000136000BF0E4B1B6803F00073002BF9D077
:102200000B4A0B4B5B6823F003035360084A084BEF
:102210005B6843F00203536000BF054B5B6803F04B
:102220000C03082BF9D10C37BD465DF8047B7047D1
:10223000001002400020024080B487B000AF7860F8
:1022400000237B6100233B610F23FB607B68DB780D
:10225000002B3AD0274BDB68DB4303F4E0631B0A17
:102260007B617B69C3F104033B617B69FA6822FAF5
:1022700003F3FB607B685B781A463B6902FA03F361
:102280007B617B689B781A46FB6813407A6913432D
:102290007B617B691B017B61174A7B681B787969CD
:1022A000C9B213440A4683F80023134A7B681B789B
:1022B0005B09DBB218467B681B7803F01F03012122
:1022C00001FA03F342F820300FE00B497B681B78DA
:1022D0005B09DBB218467B681B7803F01F03012201
:1022E0009A4000F1200341F823201C37BD465DF8D9
:1022F000047B704700ED00E000E100E080B485B0B1
:1023000000AF786039600023FB817B681B88FB810C
:102310007B682C4A93420FD07B682B4A93420BD0A8
:102320007B68B3F1804F07D07B68284A934203D083
:102330007B68274A934208D1FB8923F07003FB8115
:102340003B685A88FB891343FB817B68214A93428F
:102350000CD07B68204A934208D0FB8923F4407359
:10236000FB813B681A89FB891343FB817B68FA89EF
:102370001A803B685A687B68DA623B681A887B6817
:102380001A857B680F4A93420FD07B680E4A9342AE
:102390000BD07B68114A934207D07B68104A934266
:1023A00003D07B680F4A934204D13B689B7A9AB270
:1023B0007B681A867B6801225A611437BD465DF836
:1023C000047B7047002C01400034014000040040B1
:1023D0000008004000100040001400400040014090
:1023E000004401400048014080B483B000AF7860F1
:1023F00039607B683A68DA620C37BD465DF8047B69
:10240000704700BF80B483B000AF78607B685B6AC0
:1024100018460C37BD465DF8047B704780B483B026
:1024200000AF78600B46FB70FB78002B08D07B6810
:102430001B889BB243F001039AB27B681A8007E0C5
:102440007B681B889BB223F001039AB27B681A80D9
:102450000C37BD465DF8047B704700BF80B487B081
:1024600000AF786039600023FB6000237B610023AC
:102470003B617B681B6A23F010027B681A627B68F1
:102480001B6A7B617B685B683B617B689B69FB6067
:10249000FB6823F0807323F4E043FB60FB6823F4C4
:1024A0004073FB603B681B681B02FA681343FB60C8
:1024B0007B6923F020037B613B689B891B017A6960
:1024C00013437B613B689B881B017A6913437B61E3
:1024D0007B68204A934203D07B681F4A934227D1EE
:1024E0007B6923F080037B613B68DB891B017A6990
:1024F00013437B617B6923F040037B613B68DB888E
:102500001B017A6913437B613B6923F480633B6160
:102510003B6923F400633B613B681B8A9B003A697B
:1025200013433B613B685B8A9B003A6913433B6101
:102530007B683A695A607B68FA689A613B689A6876
:102540007B689A637B687A691A621C37BD465DF8BE
:10255000047B7047002C01400034014080B487B0F8
:1025600000AF786039600023FB6000237B610023AB
:102570003B617B681B6A23F480727B681A627B680C
:102580001B6A7B617B685B683B617B68DB69FB6026
:10259000FB6823F07003FB60FB6823F00303FB6020
:1025A0003B681B68FA681343FB607B6923F4007384
:1025B0007B613B689B891B027A6913437B613B68A3
:1025C0009B881B027A6913437B617B68204A934294
:1025D00003D07B681F4A934227D17B6923F40063B1
:1025E0007B613B68DB891B027A6913437B617B69F2
:1025F00023F480637B613B68DB881B027A691343A9
:102600007B613B6923F480533B613B6923F40053B6
:102610003B613B681B8A1B013A6913433B613B6882
:102620005B8A1B013A6913433B617B683A695A60D4
:102630007B68FA68DA613B689A687B68DA637B6872
:102640007A691A621C37BD465DF8047B704700BF8B
:10265000002C01400034014080B487B000AF7860A6
:10266000396000233B610023FB6000237B617B68B2
:102670001B6A23F480527B681A627B681B6AFB60CA
:102680007B685B687B617B68DB693B613B6923F44A
:10269000E0433B613B6923F440733B613B681B684B
:1026A0001B023A6913433B61FB6823F40053FB6050
:1026B0003B689B891B03FA681343FB603B689B885C
:1026C0001B03FA681343FB607B68114A934203D0F3
:1026D0007B68104A934209D17B6923F480437B6174
:1026E0003B681B8A9B017A6913437B617B687A692B
:1026F0005A607B683A69DA613B689A687B681A6459
:102700007B68FA681A621C37BD465DF8047B704727
:10271000002C01400034014080B483B000AF7860E9
:1027200039607B683A689A630C37BD465DF8047B74
:10273000704700BF80B483B000AF786039607B68B9
:102740003A68DA630C37BD465DF8047B704700BF1A
:1027500080B483B000AF786039607B683A681A64EF
:102760000C37BD465DF8047B704700BF80B485B070
:1027700000AF78600B467B800023FB607B689B6921
:10278000FB60FB6823F40063FB607B881B02FA6834
:102790001343FB607B68FA689A611437BD465DF8A5
:1027A000047B704780B485B000AF78600B467B80B7
:1027B0000023FB607B68DB69FB60FB6823F0080398
:1027C000FB607B88FA681343FB607B68FA68DA6118
:1027D0001437BD465DF8047B704700BF80B485B0F8
:1027E00000AF78600B467B800023FB607B68DB6971
:1027F000FB60FB6823F40063FB607B881B02FA68C4
:102800001343FB607B68FA68DA611437BD465DF8F4
:10281000047B704780B584B000AF786039600023D6
:10282000FB810123BB813B685B88002B02D1022323
:10283000FB8101E00023FB813B689B88012B02D1D7
:102840000223BB8101E00123BB813B681B88002B75
:102850001CD13B6859883B689A883B681B8978681B
:1028600000F03AF93B68DB887868194600F03AF8DE
:102870003B681B89F989BA89786800F06DF93B6873
:10288000DB887868194600F045F81BE03B685988FA
:102890003B689A883B681B89786800F05DF93B6863
:1028A000DB887868194600F035F83B681B89F989A0
:1028B000BA89786800F010F93B68DB8878681946B7
:1028C00000F010F81037BD4680BD00BF80B483B063
:1028D00000AF78607B689B6B18460C37BD465DF88F
:1028E000047B704780B483B000AF78600B467B8078
:1028F0007B689B6923F00C027B689A617B689A690C
:102900007B881A437B689A610C37BD465DF8047B6F
:10291000704700BF80B483B000AF78600B467B8007
:102920007B689B6923F440627B689A617B689A6943
:102930007B881B021A437B689A610C37BD465DF8A1
:10294000047B704780B483B000AF78600B467B8017
:1029500013467B707B78002B06D07B68DA687B8817
:102960001A437B68DA6007E07B68DB687A88D243C9
:1029700092B21A407B68DA600C37BD465DF8047B82
:10298000704700BF80B483B000AF78600B467B8097
:102990007B88DB439BB21A467B681A610C37BD46C5
:1029A0005DF8047B704700BF80B485B000AF7860ED
:1029B0000B467B800023FB817B689B68FB81FB8946
:1029C00023F07003FB81FA897B881343FB81FA892A
:1029D0007B689A601437BD465DF8047B704700BF82
:1029E00080B483B000AF786039607B689B6823F463
:1029F000803323F007037A6893607B689A683B68AA
:102A00001A437B689A600C37BD465DF8047B7047BB
:102A100080B483B000AF78600B467B807B689A6897
:102A20004FF67F7313407A6893607B689A687B885F
:102A30001A437B689A600C37BD465DF8047B70478B
:102A400080B487B000AFF860084611461A460346C6
:102A50007B810B463B811346FB800023FB820023D6
:102A6000BB8200237B82FB689B68FB82FB689B69BF
:102A7000BB82FB681B6A7B82FB8A23F00703FB8215
:102A8000FA8A7B891343FB82BB8A23F4407323F0C9
:102A90000303BB82BB8A43F4807343F00103BB8210
:102AA0007B8A23F022037B82FB881B019AB23B893D
:102AB00013439AB27B8A13437B82FA8AFB689A603B
:102AC000BA8AFB689A617A8AFB681A621C37BD462B
:102AD0005DF8047B704700BF80B487B000AFF8603A
:102AE000084611461A4603467B810B463B81134636
:102AF000FB8000237B6100233B61FB681B6A23F0A2
:102B00000102FB681A62FB689B697B61FB681B6AB8
:102B10003B617B6923F0F3037B613A89FB881B01EE
:102B200013437A6913437B613B6923F00A033B61DA
:102B30007B8943F001039BB21A463B6913433B6117
:102B4000FB687A699A61FB683A691A621C37BD466C
:102B50005DF8047B704700BF80B489B000AFF860B7
:102B6000084611461A4603467B810B463B811346B5
:102B7000FB800023FB610023BB6100237B61FB68BA
:102B80001A6A4FF6EF731340FA681362FB689B6989
:102B9000FB61FB681B6ABB617B891B019BB27B618C
:102BA000FB6923F47343FB61FB881B03FA6913433E
:102BB000FB613B891B02FA691343FB61BA694FF65B
:102BC0005F731340BB617B699BB243F010039BB200
:102BD0001A46BB691343BB61FB68FA699A61FB68DB
:102BE000BA691A622437BD465DF8047B704700BF9E
:102BF000002103E00A4B5B584350043109480A4B5B
:102C000042189A42F6D3094A02E0002342F8043BF4
:102C1000074B9A42F9D3FFF75FFAFEF715FA7047B0
:102C2000D05200080000002048000020480000208A
:102C3000B0010020FEE7000080B582B000AF7860F0
:102C40007B68264A93420AD14FF480400121FDF768
:102C5000FFFC4FF480400021FDF7FAFC3AE07B686E
:102C60001F4A93420AD14FF400300121FDF70EFDB7
:102C70004FF400300021FDF709FD2BE07B68194A75
:102C800093420AD14FF480200121FDF7FFFC4FF45D
:102C900080200021FDF7FAFC1CE07B68124A934279
:102CA0000AD14FF400200121FDF7F0FC4FF4002081
:102CB0000021FDF7EBFC0DE07B680C4A934209D143
:102CC0004FF480100121FDF7E1FC4FF4801000214A
:102CD000FDF7DCFC0837BD4680BD00BF0038014071
:102CE0000044004000480040004C004000500040BC
:102CF00080B594B000AF786039600023FB64002396
:102D0000BB6400237B647B681B6823F001027B6843
:102D10001A607B685B687B647B6C23F440537B6444
:102D20003B689B687A6C13437B647B687A6C5A605F
:102D30007B681B687B647B6C23F4B05323F00C032B
:102D40007B643B685A683B68DB681A433B681B69D5
:102D500013437A6C13437B647B687A6C1A607B68DC
:102D60009B687B647B6C23F440737B643B685B698A
:102D70007A6C13437B647B687A6C9A6007F1080372
:102D80001846FDF701FA7B68324A934202D13B6B49
:102D9000BB6416E07B68304A934202D17B6BBB6414
:102DA0000FE07B682D4A934202D1BB6BBB6408E005
:102DB0007B682B4A934202D1FB6BBB6401E03B6C06
:102DC000BB647B681B6803F40043002B11D0BB6C11
:102DD0005A003B681B68B2FBF3F3FB64BB6C5B00FF
:102DE0003A681268B3FBF2F102FB01F29B1A7B64B2
:102DF0000EE03B681B68BA6CB2FBF3F3FB643B6804
:102E00001A68BB6CB3FBF2F102FB01F29B1A7B6404
:102E10003B681B685A087B6C9A4202D8FB6C0133F2
:102E2000FB647B681B6803F40043002B0BD0FB6C36
:102E300003F00F035B087B64FA6C4FF6F0731340EA
:102E40007A6C1343FB64FB6C9AB27B689A815037AF
:102E5000BD4680BD003801400044004000480040AD
:102E6000004C004080B483B000AF78600B46FB702C
:102E7000FB78002B06D07B681B6843F001027B685F
:102E80001A6005E07B681B6823F001027B681A600A
:102E90000C37BD465DF8047B704700BF80B483B03B
:102EA00000AF78600B467B807B88C3F308039AB23F
:102EB0007B681A850C37BD465DF8047B704700BF00
:102EC00080B483B000AF78607B689B8C9BB2C3F307
:102ED00008039BB218460C37BD465DF8047B70476B
:102EE00080B485B000AF786039600023FB737B68E5
:102EF000DA693B681340002B02D00123FB7301E029
:102F00000023FB73FB7B18461437BD465DF8047B3A
:102F1000704700BF80B483B000AF786039607B68D1
:102F20003A681A620C37BD465DF8047B704700BFF3
:102F300030B51F4A21F00043934287B01BDD1D4A84
:102F4000934205DD02460B4601F01EFC07B030BD82
:102F500002AA00F059F900F00303012BDDE9020198
:102F600016D0022B0DD0EBB10124DDE9042300942F
:102F700001F096F8EAE70022002300F069FB07B0B1
:102F800030BDDDE9042300F063FB01F10041DDE722
:102F9000DDE90445009322462B4601F081F801F15A
:102FA0000041D3E7DDE9042300F052FBCEE700BF88
:102FB000FB21E93FFFFFEF7F30B5224A21F00043BC
:102FC000934287B01BDD204A934205DD02460B4643
:102FD00001F0DAFB07B030BD02AA00F015F900F0ED
:102FE000030001281ED0022811D010B3DDE9020130
:102FF000DDE9042300F02CFB01F10041EAE70023A6
:1030000000930022002301F04BF807B030BD0124EB
:10301000DDE90201DDE90423009401F041F801F14A
:103020000041D7E7DDE90201DDE9042300F010FBF0
:10303000D0E70124DDE90201DDE90423009401F079
:103040002FF8C7E7FB21E93FFFFFEF7F00F000B853
:103050002DE9F84F5442144323F00049DFF878C1BA
:1030600049EAD474644517469E4606460D4641D843
:103070004442044321F0004B4BEAD47464458A4631
:1030800038D803F1404404F58014144349D09C1708
:1030900004F0020444EAD1745BEA000132D059EA38
:1030A000070138D04C49894548D04B498B4532D02F
:1030B000C9EB0B094FEA2959B9F13C0F3ADCBEF1D3
:1030C000000F64DB3046294601F03CFE01F03CFA7B
:1030D00001F09EF8012C57D0022C48D084B138A3BF
:1030E000D3E9002301F050FB37A3D3E9002301F01B
:1030F0004BFB05E01046194632462B4601F046FBD5
:10310000BDE8F88F032CCAD8DFE804F01212020FD2
:1031100032483349F4E7BAF1000F304825DB314932
:10312000EEE7BDE8F84F01F073B82C482E49E7E709
:103130002946E5E726A1D1E90001CBE7CB452CD014
:10314000032CB2D801A151F824F000BF5D31000872
:1031500063310008113100082B31000800200146BE
:10316000CEE700204FF00041CAE72049C8E714A38A
:10317000D3E9002301F008FB02460B4612A1D1E976
:10318000000101F001FBBBE701F10041B8E719F1D3
:103190003C0F97DA002000219CE7032CBBD8DFE826
:1031A00004F0020B08050D481149A9E7114812491E
:1031B000A6E710481149A3E708481149A0E700BF56
:1031C000075C143326A6A13C182D4454FB2109406A
:1031D000182D4454FB21F93F0000F07F182D445472
:1031E000FB210940FB21F93FFB2109C0FB21F9BF6D
:1031F000FB21E93FD221337F7CD902C07CD9024038
:10320000FB21E9BFAFF300802DE9F04F964E21F08E
:10321000004BB3458FB00C4640F381809246934AF1
:10322000934526DC002986A3D3E9002340F3A88137
:1032300001F0AAFA8E4B9B4504460D4600F08480AF
:1032400081A3D3E9002301F09FFA02460B46CAE9A5
:1032500000232046294601F097FA7BA3D3E90023F7
:1032600001F092FA0125CAE9020128460FB0BDE833
:10327000F08F804A934540F384807F4A934559DC20
:103280004FEA2B55A5F21645ABEB055739460646D6
:1032900001F0C8FE01F0C6FB8046894602460B4697
:1032A00030463946CDE9088901F06EFA0022734BA9
:1032B00001F01EFC0F46064601F0B4FE01F0B2FB21
:1032C00002460B468046894630463946CDE90A8992
:1032D00001F05AFA0022694B01F00AFC0022002397
:1032E000CDE90C0101F06CFE002800F0758100238F
:1032F00040464946002201F063FE002814BF012326
:10330000022302225E49009201912A4608A85146F2
:1033100000F0C2FA002CC0F25181054606E0C2E975
:10332000000100250024C2E90245002528460FB00F
:10333000BDE8F08F02460B4601F026FA0025CAE9E7
:103340000201CAE90001F1E741A3D3E9002301F03A
:103350001BFA41A3D3E900230D46044601F014FAF9
:1033600002460B46CAE900232946204601F00CFA22
:1033700039A3D3E9002301F007FA0125CAE90201C4
:10338000D4E701F0E1F836A3D3E9002306460F465F
:1033900001F0AEFB00223B4B01F0F8F901F042FED8
:1033A000054601F03FFB26A3D3E90023CDE9040144
:1033B00001F09EFB02460B463046394601F0E4F927
:1033C00021A3D3E9002380468946DDE9040101F009
:1033D0008FFB1F2DCDE902014046494656DC2A4BA2
:1033E0006A1E53F822305B4550D0DDE9022301F01C
:1033F000CBF902460B46CAE9002307460E463A4679
:1034000033464046494601F0BFF9DDE9022301F0A9
:10341000BBF9002C02460B46CAE9022386DA06F104
:10342000004601F10041CAF80070CAF80460CAF809
:103430000C10CAF808006D4278E700BFAFF30080B7
:1034400000004054FB21F93F3163621A61B4D03D62
:103450000000601A61B4D03D7370032E8A19A33B3B
:1034600083C8C96D305FE43FFB21E93F7BD902404F
:10347000FB21F93FFB213941FFFFEF7F0000704145
:10348000345100080000E03FB4500008DDE9022399
:1034900001F07AF90E464FEA2B5BC6F30A53C3EBF1
:1034A0000B03102B0746CAE90001A8DD5CA3D3E992
:1034B0000023DDE9040101F01BFB06460F463246FE
:1034C0003B464046494601F05FF9CDE90601DDE99A
:1034D00006234046494601F057F932463B4601F083
:1034E00053F951A3D3E9002306460F46DDE9040151
:1034F00001F0FEFA32463B4601F046F9CDE9020101
:10350000DDE90223DDE9060101F03EF90E46C1F3D3
:103510000A51C1EB0B0B02463346BBF1310F074694
:10352000CAE9002378DD42A3D3E90023DDE90401E1
:1035300001F0DEFA06460F4632463B46DDE906015B
:1035400001F022F98046894642464B46DDE90601F4
:1035500001F01AF932463B4601F016F936A3D3E9D9
:10356000002306460F46DDE9040101F0C1FA3246A8
:103570003B4601F009F9CDE902014046494634E7EE
:1035800001F004F9304B9B4504460D4626D02CA390
:10359000D3E9002301F0FAF802460B46CAE90023FA
:1035A0002946204601F0F0F825A3D3E9002301F0D5
:1035B000EDF84FF0FF35CAE90201B7E6DAF804206A
:1035C000DAF80C3002F1004203F100434542CAF838
:1035D0000420CAF80C30A9E6032392E610A3D3E92D
:1035E000002301F0D3F810A3D3E900230D460446CD
:1035F00001F0CCF802460B46CAE9002329462046D2
:1036000001F0C2F808A3D3E9002301F0BFF84FF09E
:10361000FF35CAE9020189E6DDE90689EFE600BF68
:103620000000601A61B4D03D7370032E8A19A33B69
:103630000000002E8A19A33BC14920259A837B39BB
:103640003163621A61B4D03DFB21F93FAFF30080D2
:103650002DE9F04F21F00047B7F1795F85B00C46B6
:1036600092469B4605466BDA01F0DCFC002800F030
:10367000E8802A4623462846214601F039FA74A3F9
:10368000D3E900238046894601F032FA72A3D3E9D8
:10369000002301F07BF842464B4601F029FA70A363
:1036A000D3E9002301F070F842464B4601F020FABE
:1036B0006DA3D3E9002301F069F842464B4601F0BF
:1036C00017FA6BA3D3E9002301F05EF842464B469C
:1036D00001F00EFA68A3D3E9002301F057F842463F
:1036E0004B4601F005FACDE900014046494600226B
:1036F000634B01F0FDF9DDE9002306460F46404625
:10370000494601F0F5F95246804689465B4628460F
:10371000214601F0EDF902460B464046494601F0CC
:1037200033F802460B463046394601F02DF8024682
:103730000B460020534901F027F805B0BDE8F08F93
:1037400002460B4601F0D4F941A3D3E90023804699
:10375000894601F0CDF940A3D3E9002301F016F822
:1037600042464B4601F0C4F93DA3D3E9002301F0E2
:103770000BF842464B4601F0BBF93BA3D3E90023CB
:1037800001F004F842464B4601F0B2F938A3D3E900
:10379000002300F0F9FF42464B4601F0A9F936A399
:1037A000D3E9002300F0F2FF4B46424601F0A0F9B6
:1037B000354B9F42CDE9000197DD344B9F424FF0DE
:1037C000000238DCA7F5001300202E4916461F46DC
:1037D00000F0DAFFCDE90201404649460022284BBD
:1037E00001F086F932463B4600F0CEFFDDE90023CA
:1037F00006460F464046494601F07AF95246804651
:1038000089465B462846214601F072F902460B467E
:103810004046494600F0B8FF02460B46304639465E
:1038200000F0B2FF02460B46DDE9020100F0ACFFFA
:1038300005B0BDE8F08F164B164FCDE902230026E8
:10384000CAE71049002005B0BDE8F08FAFF3008053
:10385000D43888BEE9FAA8BDC4B1B4BD9EEE213EFD
:10386000AD529C804F7E923E9015CB19A001FA3E3E
:103870007751C1166CC1563F4C5555555555A53F0E
:103880000000E03F0000F03F3233D33F0000E93F4B
:103890000000E73F0000D23F2DE9F04FADF51D7D60
:1038A0007B4CA69E7B4D54F8264009942646D41E98
:1038B00085FB0475E417C4EBA50424EAE4741D46F3
:1038C0000C93E34303EB4303013D02EBC303089373
:1038D0002B460D940395651B9C1904900A9116D4F0
:1038E0002C44013422AEA79F08E057F8250001F0D0
:1038F00099F80135A542E6E9020108D0002DF4DA75
:10390000013500200021A542E6E90201F6D1099B1C
:10391000002B31DB099A0C9B74A901EBC20BC3EBA2
:103920004373039A24A9DB0001EBC20800930DF551
:10393000E479039B002BC0F29981049BA3F1080A50
:10394000009B444608EB030500260027FAE9022302
:1039500074E8020101F0CCF802460B4630463946C5
:1039600000F014FFAC4206460F46EFD1E9E90267CA
:10397000D94508F10808DCD1099901F18043013BE0
:103980009B001A1D10A8024403440F920E938B460D
:103990004FEACB039CA91A460693BBF1000F0B44D8
:1039A00053E9284528DD0DF5E87A0AEB02060FAF4A
:1039B0000022394B2046294601F09AF801F032FBEB
:1039C00001F030F80022354B8046894601F090F82E
:1039D00002460B462046294600F0D6FE01F022FBA7
:1039E00076E9022347F8040F4946404600F0CEFE30
:1039F000564504460D46DBD1DDF820902046294689
:103A00004A4600F031FE00224FF07F5304460D4637
:103A100001F06EF800F09CFD0022214B01F068F8E7
:103A200002460B462046294600F0AEFE04460D46EF
:103A300001F0F8FA804600F0F5FF02460B462046FA
:103A4000294600F0A1FE4C46002C06460F4640F3E6
:103A5000F3800BF1FF3110ABC9F1180253F821309C
:103A600043FA02F000FA02F510AA5D1BC9F1170330
:103A700042F8215080441D41002D3EDDBBF1000F76
:103A800008F1010840F38A82002214460FA911E0D0
:103A90003C520008ABAAAA2A0000703E0000704108
:103AA00000002040C3F180700BB108600124013296
:103AB00093450DDD51F8043F002CF3D0C3F1FF1303
:103AC000013203F57F4393450B604FF00104F1DCB5
:103AD000089B002B0EDD012B00F0B680022B09D1D4
:103AE0000BF1FF3210AB10A953F82230C3F31503CA
:103AF00041F82230022D00F08680304639460022FF
:103B0000002301F05DFA002800F0CC80099B0BF146
:103B1000FF3A53450DDC10AB0F9803EB8B030022EB
:103B200053F8041D834242EA0102F9D1002A40F011
:103B30001B82099B10AA013B52F82330002B40F056
:103B40002B820E9A012352F8041D01330029FAD06A
:103B50005B441A460B930BF1010393424DDC0D9A23
:103B600003EB02090B9A0C9B09F180495B44CBEBF8
:103B7000020BA79A09F1FF3902EB890200924FEA82
:103B8000CB02DB00059224AA02EB030B0793069BF2
:103B900074AA02EB030A4FF00008009B53F8040FCD
:103BA000009300F03FFF039B002BEBE8020127DBB3
:103BB000079B03EB0804069B08EB030524AB1C449E
:103BC0001D44049B0026A3F108090027F9E90223FC
:103BD00074E8020100F08CFF02460B46304639467D
:103BE00000F0D4FDAC4206460F46EFD1059B08F12C
:103BF00008089845EAE90267CFD1DDF82CB0C7E69E
:103C000000260027F2E732463B460020C04900F07C
:103C1000BBFD06460F46002C3FF46FAF089ABC4927
:103C2000002000F021FD02460B463046394600F0E8
:103C3000ABFD06460F4660E711D10BF1FF3310AA2A
:103C400052F82350ED1517E70BF1FF3210AB10A916
:103C500053F82230C3F3160341F822304AE700221A
:103C6000AC4B01F0CBF958B9054646E700260027D2
:103C7000E9E90267D94508F108087FF45AAE7BE606
:103C8000BBF1000F08F10108C8BF02253FF7FCAEE9
:103C900032463B4600209E4900F076FD022506464E
:103CA0000F462AE7089B03955A4230463946CDF81D
:103CB000148000F0D9FC0022974B04460D4601F019
:103CC0009DF9002800F0E3810022944B204629460C
:103CD00000F00EFF01F0A6F9064600F0A3FE002258
:103CE0008D4B00F005FF0B4602462946204600F0AA
:103CF0004BFD01F097F9089B18330BF1010A08936B
:103D000010AB43F82B0043F82A60089A8049002042
:103D100000F0AAFCBAF1000F04460D46C0F2CD80B7
:103D20000AF101034FEAC30874AF10AA009302EB33
:103D3000830907EB080659F8040D00F073FE2246CC
:103D40002B4600F0D5FE002266E90201734B2046A7
:103D5000294600F0CDFEBE4204460D46EBD1A8F147
:103D6000080806EB08030DF59879CDF818A0DDF8E2
:103D700024A0CDF810904FF000089B46BAF1000F38
:103D8000C0F29880B8F1000FC0F29480DFF89091F3
:103D90005D4600260027002401E0444510DCF9E9D7
:103DA0000223F5E8020100F0A3FE02460B4630466E
:103DB000394600F0EBFC0134A24506460F46ECDA2A
:103DC000049B03EBC803C3E90067009B08F10108EB
:103DD0009845ABF1080BD1D1A69BDDF818A0DDF812
:103DE0001090032B3DD8DFE813F0430004000400DB
:103DF000DB00009B002409EBC3062546204629462C
:103E000076E9022300F0C2FC4E4504460D46F5D18A
:103E1000039B002B00F08E800A982B4605F100458D
:103E2000224680E83000D9E9000100F0ADFCBAF18B
:103E3000000F02460B460DDD012410461946F9E934
:103E4000022300F0A3FC0134A24502460B46F4DA3B
:103E5000039909B103F1004319460A9B1046C3E9CF
:103E60000201059B03F007000DF51D7DBDE8F08FF5
:103E7000009B002209EBC30913461046194679E955
:103E8000022300F083FC0AF1FF3ABAF1FF3F024639
:103E90000B46F2D1039909B103F1004319460A9B7D
:103EA0001046C3E90001059B03F007000DF51D7DD9
:103EB000BDE8F08F0026002782E7A69B032BD0D811
:103EC000DFE803F04F3030020DF59879039B0027AF
:103ED0003E46002B00F0C780D9F80C300A9DD9F877
:103EE0000400D9F80020D9F808102F6103F100432D
:103EF000EB60059B2A6000F1004006F10046686017
:103F000003F007006E61A9600DF51D7DBDE8F08F1F
:103F10000000F03F0000E03F000070410000703EF4
:103F200048520008039B002425460DF59879002B84
:103F30007FF472AF204622460A9C29462B46C4E9EC
:103F40000001D9E9000100F01FFCBAF1000F0246A0
:103F50000B463FF771AF19460A9B1046C3E90201B1
:103F60007FE70022134695E710AB089A53F82A30F2
:103F70000395183ACDF814800892002B7FF4C5AE53
:103F800010AB03EB8A0353F8041D0AF1FF3A183A09
:103F90000029F8D00892B8E60123D9E5002497E576
:103FA000BAF1000F92DD4FEACA0809EB080BDBE912
:103FB00000677BE9022330463946CDE9002300F053
:103FC000E5FB04460D4622462B46DDE9000100F0E4
:103FD000DBFB02460B463046394600F0D7FBCB45AB
:103FE00026462F46CBE90201CBE90045E1D1BAF1E3
:103FF000010F7FF76BAF09EB080ADAE900670DF5EF
:104000009C7B7AE902231046194632463B46CDE9AD
:10401000000100F0BBFB04460D4622462B46DDE9BD
:10402000000100F0B1FB32463B4600F0AFFBDA4541
:1040300026462F46CAE90201CAE90045E1D108F146
:10404000080400274C443E4650AD3846314674E9DA
:10405000022300F09BFBAC4207460E46F5D1039BC2
:10406000002B7FF439AFD9E900233C460A9FD9E9F8
:104070000201C7E90023059B3546C7E9020103F0A9
:104080000700C7E904450DF51D7DBDE8F08F20460A
:10409000294600F0C7FF10ABDA4643F82B0034E6A0
:1040A0002DE9F04F21F00046B6F1795F85B00C465E
:1040B00090469946054604DA00F0B4FF002800F067
:1040C00083802A4623462846214600F011FD2A46D1
:1040D000234606460F4600F00BFD3FA3D3E900231D
:1040E00082468B463046394600F002FD3CA3D3E9B8
:1040F000002300F049FB32463B4600F0F9FC3AA3AE
:10410000D3E9002300F042FB32463B4600F0F0FCCE
:1041100037A3D3E9002300F037FB32463B4600F0DB
:10412000E7FC35A3D3E9002300F030FB0E9BCDE97B
:1041300000019BB3404649460022334B00F0D8FCB7
:10414000DDE90023CDE902015046594600F0D0FCDC
:1041500002460B46DDE9020100F016FB32463B4603
:1041600000F0C6FC42464B4600F00EFB24A3D3E908
:10417000002306460F465046594600F0B9FC024659
:104180000B463046394600F001FB02460B462846F6
:10419000214600F0F9FA05B0BDE8F08FDDE9002313
:1041A0003046394600F0A4FC15A3D3E9002300F003
:1041B000EBFA52465B4600F09BFC2A46234600F091
:1041C000E5FA05B0BDE8F08F2846214605B0BDE808
:1041D000F08F00BFAFF300807CD5CF5A3AD9E53DD0
:1041E000EB9C2B8AE6E55A3E7DFEB157E31DC73EA8
:1041F000D561C119A0012A3FA6F810111111813F04
:10420000495555555555C53F0000E03FAFF3008077
:104210002DE9F84FBE4B21F000469E420D468A46DE
:1042200004460FDDBB4B9E4200F3B08000F0AB8034
:10423000B94BBA49BA4CBAF1000FC8BF194620466B
:10424000BDE8F88FB74B9E4200F3BA80A3F1DE734E
:104250009E4240F3A5804FF0FF3B22462B4620466E
:10426000294600F045FC02460B468046894600F090
:104270003FFC8FA3D3E9002306460F4600F038FC2D
:104280008DA3D3E9002300F081FA32463B4600F0CB
:104290002FFC8BA3D3E9002300F078FA32463B468B
:1042A00000F026FC88A3D3E9002300F06FFA324621
:1042B0003B4600F01DFC86A3D3E9002300F066FA1C
:1042C00032463B4600F014FC83A3D3E9002300F000
:1042D0005DFA42464B4600F00BFC81A3D3E9002374
:1042E000804689463046394600F002FC7EA3D3E979
:1042F000002300F049FA32463B4600F0F9FB7CA36C
:10430000D3E9002300F040FA32463B4600F0F0FBD0
:1043100079A3D3E9002300F037FA32463B4600F098
:10432000E7FB77A3D3E9002300F02EFA32463B46A1
:1043300000F0DEFBBBF1FF3F02460B4667D0404674
:10434000494600F023FA22462B4600F0D1FB764E78
:10435000764B4FEACB0B5E449B44DBE9002300F035
:1043600013FA22462B4600F00FFA02460B46D6E916
:10437000000100F009FABAF1000F0446BFF65FAF82
:1043800001F100415BE700283FF452AF224620468E
:1043900029462B4600F0FAF904462046BDE8F88F7E
:1043A00059A3D3E9002300F0F1F90022604B00F09B
:1043B0002FFE00283FF44FAF29462046BDE8F88F76
:1043C00000F0C2F85B4B9E4204460D462FDCA3F57D
:1043D00050239E4254DC02460B4600F0D7F90022DF
:1043E000534B00F0D1F9002206460F4620462946DD
:1043F0004FF0804300F0CAF902460B46304639467A
:1044000000F0A0FC4FF0000B04460D4625E74046A7
:10441000494600F0BBF922462B4600F069FB0246F4
:104420000B462046294600F0AFF9044607E7424B09
:104430009E421ADC0022414B00F0A6F900220646FB
:104440000F46204629463D4B00F052FB0022384BD8
:1044500000F09CF902460B463046394600F072FCEB
:104460004FF0020B04460D46F7E602460B460020CD
:10447000334900F067FC4FF0030B04460D46ECE6B1
:1044800000222B4B00F080F9002206460F46204602
:104490002946274B00F07AF902460B46304639464A
:1044A00000F050FC4FF0010B04460D46D5E600BF6E
:1044B00011DA22E33AAD903FEB0D76244B7BA93F16
:1044C000513DD0A0660DB13F6E204CC5CD45B73FE4
:1044D000FF8300922449C23F0D5555555555D53F90
:1044E0002F6C6A2C44B4A2BF9AFDDE522DDEAD3F84
:1044F0006D9A74AFF2B0B33F711623FEC671BC3F24
:10450000C4EB98999999C93F9C7500883CE4377E23
:10451000FFFF0F440000F07FFB21F93FFB21F9BFB3
:10452000182D4454FFFFDB3FB052000890520008A2
:104530000000F03FFFFFF23FFF7F03400000F83F25
:104540000000F0BFAFF3008021F00041704700BFD2
:104550002DE9F047C1F30A58A8F2FF36132E0B4697
:104560000D4604460246894607461DDC002E40DB08
:10457000DFF8F08048FA06F808EA010E5EEA020267
:1045800017D035A3D3E9002300F000F9002200235F
:1045900000F03EFD20B1002D40DB29EA0805002790
:1045A00038462946BDE8F087332E06DDB6F5806F24
:1045B0002FD020461946BDE8F087A8F213424FF0ED
:1045C000FF3A2AFA02FA1AEA000FF2D022A3D3E93C
:1045D000002300F0DBF80022002300F019FD002882
:1045E000DED0002D1FDB4D4627EA0A073846294654
:1045F000D8E719A3D3E9002300F0C8F8002200236C
:1046000000F006FD0028CBD0002D1ADB00273D4628
:10461000C6E702460B4600F0B9F8CCE74FF480132A
:1046200033419944B9E7142E08D0C8F5866808F1DB
:104630000308012303FA08F31F19D4D309F1010970
:10464000D1E725F00042064B224318BF1D46002744
:10465000A6E700BFAFF300809C7500883CE4377E7E
:104660000000F0BFFFFF0F00F8B5C1F30A56044683
:104670000D460B46174616BB21F00043034332D0CC
:104680000022374B00F034FA364A974204460D4672
:104690000B4637DBC1F30A56363E3E4440F2FE720B
:1046A000964215DD22462B4629A1D1E9000100F0F2
:1046B0005FF827A3D3E9002300F01AFAF8BD40F20F
:1046C000FF72964224D03E4440F2FE729642E9DCEC
:1046D000002E09DD23F0FF4323F4E00343EA0655EF
:1046E00020462946F8BDF8BD16F1350F15DA4CF213
:1046F00050339F4222462B461DDC17A1D1E9000111
:1047000000F036F814A3D3E9002300F0F1F9F8BD66
:1047100002460B4600F03AF8F8BD23F0FF4323F4BD
:10472000E003363643EA06552046294600220E4B62
:1047300000F0DEF9F8BD06A1D1E9000100F018F89B
:1047400003A3D3E9002300F0D3F9F8BDAFF3008051
:104750009C7500883CE4377E59F3F8C21F6EA501B2
:1047600000005043B03CFFFF0000903CAFF30080DE
:1047700003F0004321F0004243EA0201704700BF0A
:1047800081F0004102E000BF83F0004330B54FEA02
:1047900041044FEA430594EA050F08BF90EA020F6F
:1047A0001FBF54EA000C55EA020C7FEA645C7FEA02
:1047B000655C00F0E2804FEA5454D4EB5555B8BF25
:1047C0006D420CDD2C4480EA020281EA030382EA96
:1047D000000083EA010180EA020281EA0303362D28
:1047E00088BF30BD11F0004F4FEA01314FF4801CFB
:1047F0004CEA113102D0404261EB410113F0004F0D
:104800004FEA03334CEA133302D0524263EB4303C3
:1048100094EA050F00F0A780A4F10104D5F1200E61
:104820000DDB02FA0EFC22FA05F2801841F10001BC
:1048300003FA0EF2801843FA05F359410EE0A5F190
:1048400020050EF1200E012A03FA0EFC28BF4CF0C1
:10485000020C43FA05F3C01851EBE37101F0004577
:1048600007D54FF0000EDCF1000C7EEB00006EEB84
:104870000101B1F5801F1BD3B1F5001F0CD349080E
:104880005FEA30004FEA3C0C04F101044FEA445265
:1048900012F5800F80F09A80BCF1004F08BF5FEAEC
:1048A000500C50F1000041EB045141EA050130BDCC
:1048B0005FEA4C0C404141EB010111F4801FA4F16F
:1048C0000104E9D191F0000F04BF01460020B1FAC4
:1048D00081F308BF2033A3F10B03B3F120020CDAFC
:1048E0000C3208DD02F1140CC2F10C0201FA0CF0DA
:1048F00021FA02F10CE002F11402D8BFC2F1200C3F
:1049000001FA02F120FA0CFCDCBF41EA0C019040F4
:10491000E41AA2BF01EB0451294330BD6FEA04043D
:104920001F3C1CDA0C340EDC04F11404C4F1200228
:1049300020FA04F001FA02F340EA030021FA04F33A
:1049400045EA030130BDC4F10C04C4F1200220FA91
:1049500002F001FA04F340EA0300294630BD21FACF
:1049600004F0294630BD94F0000F83F4801306BF95
:1049700081F480110134013D4EE77FEA645C18BF89
:104980007FEA655C29D094EA050F08BF90EA020F20
:1049900005D054EA000C04BF1946104630BD91EA18
:1049A000030F1EBF0021002030BD5FEA545C05D11B
:1049B0004000494128BF41F0004130BD14F580045A
:1049C0003CBF01F5801130BD01F0004545F0FE41CE
:1049D00041F470014FF0000030BD7FEA645C1ABF03
:1049E000194610467FEA655C1CBF0B46024650EA3A
:1049F000013406BF52EA033591EA030F41F4002166
:104A000030BD00BF90F0000F04BF0021704730B5EB
:104A10004FF4806404F132044FF000054FF00001C0
:104A200050E700BF90F0000F04BF0021704730B581
:104A30004FF4806404F1320410F0004548BF404256
:104A40004FF000013EE700BF42004FEAE2014FEAAB
:104A500031014FEA02701FBF12F07F4393F07F4F86
:104A600081F06051704792F0000F14BF93F07F4FB8
:104A7000704730B54FF4607401F0004521F00041FB
:104A800020E700BF50EA010208BF704730B54FF081
:104A900000050AE050EA010208BF704730B511F086
:104AA000004502D5404261EB41014FF4806404F1BE
:104AB00032045FEA915C3FF4DCAE4FF003025FEA40
:104AC000DC0C18BF03325FEADC0C18BF033202EBC8
:104AD000DC02C2F1200300FA03FC20FA02F001FA22
:104AE00003FE40EA0E0021FA02F11444C1E600BFC1
:104AF00070B54FF0FF0C4CF4E06C1CEA11541DBF74
:104B00001CEA135594EA0C0F95EA0C0F00F0DEF83E
:104B10002C4481EA030621EA4C5123EA4C5350EA23
:104B2000013518BF52EA033541F4801143F4801374
:104B300038D0A0FB02CE4FF00005E1FB02E506F005
:104B40000042E0FB03E54FF00006E1FB03569CF05A
:104B5000000F18BF4EF0010EA4F1FF04B6F5007F60
:104B600064F5407404D25FEA4E0E6D4146EB0606D2
:104B700042EAC62141EA55514FEAC52040EA5E505B
:104B80004FEACE2EB4F1FD0C88BFBCF5E06F1ED805
:104B9000BEF1004F08BF5FEA500E50F1000041EB3C
:104BA000045170BD06F0004646EA010140EA0200E9
:104BB00081EA0301B4EB5C04C2BFD4EB0C0541EA0B
:104BC000045170BD41F480114FF0000E013C00F320
:104BD000AB8014F1360FDEBF002001F0004170BD44
:104BE000C4F10004203C35DA0C341BDC04F114045D
:104BF000C4F1200500FA05F320FA04F001FA05F2E9
:104C000040EA020001F0004221F0004110EBD370B5
:104C100021FA04F642EB06015EEA430E08BF20EAE1
:104C2000D37070BDC4F10C04C4F1200500FA04F384
:104C300020FA05F001FA04F240EA020001F0004116
:104C400010EBD37041F100015EEA430E08BF20EA89
:104C5000D37070BDC4F1200500FA05F24EEA020ED1
:104C600020FA04F301FA05F243EA020321FA04F000
:104C700001F0004121FA04F220EA020000EBD370B7
:104C80005EEA430E08BF20EAD37070BD94F0000FB7
:104C90000FD101F00046400041EB010111F4801FEB
:104CA00008BF013CF7D041EA060195F0000F18BF9C
:104CB000704703F00046520043EB030313F4801FD8
:104CC00008BF013DF7D043EA0603704794EA0C0F92
:104CD0000CEA135518BF95EA0C0F0CD050EA4106A8
:104CE00018BF52EA4306D1D181EA030101F0004125
:104CF0004FF0000070BD50EA410606BF104619464D
:104D000052EA430619D094EA0C0F02D150EA013658
:104D100013D195EA0C0F05D152EA03361CBF104699
:104D200019460AD181EA030101F0004141F0FE4138
:104D300041F470014FF0000070BD41F0FE4141F4BC
:104D4000780170BD70B54FF0FF0C4CF4E06C1CEABC
:104D500011541DBF1CEA135594EA0C0F95EA0C0F71
:104D600000F0A7F8A4EB050481EA030E52EA03352C
:104D70004FEA013100F088804FEA03334FF080554D
:104D800045EA131343EA12634FEA022245EA11157A
:104D900045EA10654FEA00260EF000419D4208BF2B
:104DA000964244F1FD0404F5407402D25B084FEAD8
:104DB0003202B61A65EB03055B084FEA32024FF484
:104DC00080104FF4002CB6EB020E75EB030E22BFE1
:104DD000B61A754640EA0C005B084FEA3202B6EBA1
:104DE000020E75EB030E22BFB61A754640EA5C0050
:104DF0005B084FEA3202B6EB020E75EB030E22BFE0
:104E0000B61A754640EA9C005B084FEA3202B6EBE0
:104E1000020E75EB030E22BFB61A754640EADC009F
:104E200055EA060E18D04FEA051545EA16754FEA01
:104E300006164FEAC30343EA52734FEAC2025FEA1F
:104E40001C1CC0D111F4801F0BD141EA00014FF0AE
:104E500000004FF0004CB6E711F4801F04BF01437F
:104E60000020B4F1FD0C88BFBCF5E06F3FF6AFAE9B
:104E7000B5EB030C04BFB6EB020C5FEA500C50F12B
:104E8000000041EB045170BD0EF0004E4EEA1131AE
:104E900014EB5C04C2BFD4EB0C0541EA045170BDB5
:104EA00041F480114FF0000E013C90E645EA060EF9
:104EB0008DE60CEA135594EA0C0F08BF95EA0C0F27
:104EC0003FF43BAF94EA0C0F0AD150EA01347FF46F
:104ED00034AF95EA0C0F7FF425AF104619462CE746
:104EE00095EA0C0F06D152EA03353FF4FDAE1046A9
:104EF000194622E750EA410618BF52EA43067FF4FA
:104F0000C5AE50EA41047FF40DAF52EA43057FF489
:104F1000EBAE12E74FF0FF3C06E000BF4FF0010C94
:104F200002E000BF4FF0010C4DF804CD4FEA410CF8
:104F30007FEA6C5C4FEA430C18BF7FEA6C5C1BD0C5
:104F400001B050EA410C0CBF52EA430C91EA030F46
:104F500002BF90EA020F0020704710F1000F91EAA3
:104F6000030F58BF994208BF90422CBFD8176FEA71
:104F7000E37040F0010070474FEA410C7FEA6C5C3F
:104F800002D150EA013C07D14FEA430C7FEA6C5C46
:104F9000D6D152EA033CD3D05DF8040B704700BF72
:104FA0008446104662468C461946634600E000BFC0
:104FB00001B5FFF7B7FF002848BF10F1000F01BD92
:104FC0004DF808EDFFF7F4FF0CBF012000205DF85D
:104FD00008FB00BF4DF808EDFFF7EAFF34BF0120E2
:104FE00000205DF808FB00BF4DF808EDFFF7E0FF7B
:104FF00094BF012000205DF808FB00BF4DF808EDCC
:10500000FFF7CEFF94BF012000205DF808FB00BF32
:105010004DF808EDFFF7C4FF34BF012000205DF814
:1050200008FB00BF4FEA410212F5001215D211D55C
:105030006FF47873B3EB625212D94FEAC12343F095
:10504000004343EA505311F0004F23FA02F018BF17
:10505000404270474FF00000704750EA013005D1E0
:1050600011F0004008BF6FF0004070474FF00000A3
:10507000704700BF4A0011D212F5001211D20DD5AF
:105080006FF47873B3EB62520ED44FEAC12343F04E
:10509000004343EA505323FA02F070474FF00000F8
:1050A000704750EA013002D14FF0FF3070474FF0A7
:1050B00000007047FB21F93FFB2109407CD91240D9
:1050C000FB2119407A6A1F407CD92240BBFD254054
:1050D000FB2129403A462C407A6A2F405C473140F8
:1050E0007CD932409C6B3440BBFD3540DB8F374070
:1050F000FB2139401BB43A403A463C405AD83D4027
:105100007A6A3F404C7E40405C4741406C104240D0
:105110007CD942408CA243409C6B4440AC34454017
:10512000BBFD4540CBC64640DB8F4740EB5848406F
:10513000FB21494083F9A200444E6E00FC29150072
:10514000D1572700DD34F50062DBC0003C999500A3
:10515000419043006351FE00BBDEAB00B761C50068
:105160003A6E2400D24D42004906E00009EA2E00C2
:105170001C92D100EB1DFE0029B11C00E83EA700E7
:10518000F535820044BB2E009CE98400B4267000F3
:10519000417E5F00D6913900538339009CF4390079
:1051A0008B5F840028F9BD00F81F3B00DEFF9700ED
:1051B0000F980500112FEF000A5A8B006D1F6D002C
:1051C000CF7E360009CB2700464FB7009E663F00D2
:1051D0002DEA5F00BA277500E5EBC7003D7BF100C3
:1051E000F739070092528A00FB6BEA001FB15F009B
:1051F000085D8D00300356007BFC4600F0AB6B0071
:1052000020BCCF0036F49A00E3A91D005E61910036
:10521000081BE60085996500A0145F008D406800BA
:1052200080D8FF0027734D0006063100CA561500CE
:10523000C9A873007BE260006B8CC0000200000014
:105240000300000004000000060000000000000051
:1052500000000040FB21F93F000000002D44743E97
:10526000000000809846F83C0000006051CC783B7C
:1052700000000080831BF0390000004020257A38B0
:10528000000000802282E336000000001DF3693533
:10529000E2652F227F2B7A3C075C143326A6813CE3
:1052A000BDCBF07A8807703C075C143326A6913C8E
:1052B0004FBB610567ACDD3F182D4454FB21E93F2E
:1052C0009BF681D20B73EF3F182D4454FB21F93F1D
:1052D000000000000102030401020304060708099C
:1052E0000000010002000400060008000A000C0093
:1052F000100020004000800000010000F4010000C8
:105300000100000000A24A040000000000000000AC
:0853100001020304060708096D
:0400000508000000EF
:00000001FF
